:020000040800F2
:100000006021002045010008C5170008490D0008BF
:10001000C1170008610700088D1D000800000000DE
:10002000000000000000000000000000011B0008AC
:10003000950A0008000000004D180008ED1B00089C
:100040005F0100085F0100085F0100085F01000810
:100050005F0100085F0100085F0100085F01000800
:100060005F0100085F0100085F0100085F010008F0
:100070005F0100085F0100085F0100085F010008E0
:100080005F0100085F0100085F0100085F010008D0
:100090005F0100085F0100085F0100085F010008C0
:1000A0005F0100085F0100085F0100085F010008B0
:1000B0005F0100085F0100085F0100085F010008A0
:1000C0005F0100085F0100085F0100085F01000890
:1000D0005F0100085F0100085F0100085F01000880
:1000E0005F0100085F0100085F0100085F01000870
:1000F0005F0100085F0100085F0100085F01000860
:100100005F0100085F0100085F0100085F0100084F
:100110005F0100085F010008511C00085F01000832
:100120005F0100085F0100085F0100085F0100082F
:10013000DFF80CD000F048F900480047992C00087F
:10014000602100200648804706480047FEE7FEE79A
:10015000FEE7FEE7FEE7FEE7FEE7FEE7FEE7FEE777
:10016000F11B0008310100080649074A086850439E
:1001700043F23902104408604008704701490860A2
:1001800070470000400100206D4EC64140EA010367
:100190009B0703D009E008C9121F08C0042AFAD23D
:1001A00003E011F8013B00F8013B521EF9D2704701
:1001B000D2B201E000F8012B491EFBD270470022A9
:1001C000F6E710B513460A4604461946FFF7F0FF56
:1001D000204610BDF0B480EA0102D40F4200B2EB19
:1001E000410F02D20246084611464A0042D0C30DD2
:1001F000DDB2C1F3C752AD1A202D35DAC1F31601B5
:1002000041F4000204B15242C5F1200602FA06F19F
:100210002A411044B3EBD05F23D0C4B1012DA0EB31
:10022000C35009DCF0BC4FF0004202EAC352DBB21B
:1002300000F5000000F099B8400000F1807000EB7C
:10024000C350A0F1807040EAD170490009E049082C
:1002500041EAC071A0EBC35000F50000400800EB7C
:10026000C350F0BC00F078B86142012202EB4101BA
:10027000001BF6E7F0BC704781F00041AAE780F070
:100280000040A7E780EA010210B502F000434000F9
:1002900022D04A001FD0010E01EB1261C0F35600BC
:1002A000C2F3560240F4000042F40002A0FB022018
:1002B00000047F39140400D0401C50EA124001D4DD
:1002C0004000491EC2B20C0604EBD010401C40088E
:1002D000802A02D003E0002010BD20F00100002998
:1002E00000DA0020184310BDC10F80EAE070084416
:1002F000CA079623002100F038B800F0004220F031
:100300000040C10DC0F3160040F400007F2901DA5F
:1003100000207047962903DCC1F19601C84001E036
:1003200096398840002AF4D04042704730B50B46D9
:10033000014600202022012409E021FA02F59D4215
:1003400005D303FA02F5491B04FA02F52844151EE9
:10035000A2F10102F1DC30BD0029A8BF7047401CAA
:10036000490008BF20F00100704710B4B0FA80FCCB
:1003700000FA0CF050EA010404BF10BC704749B108
:10038000CCF1200421FA04F411FA0CF118BF012178
:1003900021430843A3EB0C01CB1D4FEA00614FEA58
:1003A000102042BF002010BC704700EBC350104427
:1003B0000029A4BF10BC7047401C490008BF20F0B2
:1003C000010010BC70470000064C074D06E0E068D5
:1003D00040F0010394E8070098471034AC42F6D38C
:1003E000FFF7AAFE306B0008506B000870B58C1840
:1003F00010F8015B15F0070301D110F8013B2A1139
:1004000006D110F8012B03E010F8016B01F8016B25
:100410005B1EF9D12B0705D40023521E0DD401F821
:10042000013BFAE710F8013BCB1A921C03E013F8EA
:10043000015B01F8015B521EF9D5A142D8D300201F
:1004400070BD21B1826842F00102826003E08268DF
:1004500022F001028260704721B1826842F480720A
:10046000826003E0826822F48072826070470146F5
:1004700000208A6802F004020AB1012000E0002096
:100480007047014600208A6802F008020AB1012084
:1004900000E000207047000030B502460020002335
:1004A00050680F4C20400D790C6844EA0524204325
:1004B000506090680B4C2040D1E902542C434D7998
:1004C00044EA450420439060D06A20F470000C7C1C
:1004D000641EE4B2234340EA0350D06230BD000002
:1004E000FFFEF0FFFDF7F1FFF0B504460D460020DA
:1004F0000021092D11DDE068A5F10A0606EB46078B
:10050000072606FA07F18843A5F10A0606EB460618
:1005100003FA06F10843E0600CE0206905EB4507AB
:10052000072606FA07F1884305EB450603FA06F1AC
:1005300008432061072A0FDA606B561E06EB860718
:100540001F2606FA07F18843561E06EB860605FAB3
:1005500006F10843606322E00D2A0FDA206BD61FF4
:1005600006EB86071F2606FA07F18843D61F06EB1F
:10057000860605FA06F10843206310E0E06AA2F15E
:100580000D0606EB86071F2606FA07F18843A2F13F
:100590000D0606EB860605FA06F10843E062F0BD9B
:1005A000816841F008018160704721B1826842F49E
:1005B000A002826003E0826822F4A0028260704799
:1005C000816841F0040181607047000008B5012195
:1005D000102001F069F90820ADF8000000208DF826
:1005E00003006946014800F0ECFA08BD0010014024
:1005F00010B5FFF7EBFF00F001F810BD00B591B0AA
:100600000121084601F030F90121480201F04CF9BE
:10061000334800F07BF933480690334807900020B8
:1006200008900120099000200A900B904FF48070F0
:100630000C9080000D9020200E9000020F90002062
:10064000109006A9264800F007FA0121244800F07E
:1006500051F9002001908DF8080001208DF8090063
:100660004FF4602003900020049001208DF81400C6
:1006700001A91C484C38FFF70FFF4FF4404001F030
:10068000E7F8052301220D2116484C38FFF72CFF0F
:10069000012114484C38FFF7DFFE012111484C3886
:1006A000FFF7CFFE0F484C38FFF77AFF00BF0D4829
:1006B0004C38FFF7E6FE0028F9D10A484C38FFF71E
:1006C0007FFF00BF07484C38FFF7D1FE0028F9D163
:1006D000012104484C38FFF768FF11B000BD00004D
:1006E000080002404C2401403C00002010B500F0FE
:1006F00023F800F001F810BD0EB50121102001F023
:10070000C3F840F2E730ADF804004720ADF8000030
:100710006946084801F0DAFA0121064801F0AAFA10
:1007200001221146034801F0C8FA0121014801F0F5
:10073000A7FA0EBD0010004008B54FF4E06001F0CC
:100740007BF836208DF8000000208DF80100012094
:100750008DF802008DF80300684601F035F808BDF9
:1007600000BFFEE7F8B5002625A000680090002431
:1007700041E01DF8040000F0BFFF012800D100E0B7
:10078000002005461F48005D20B1012807D002283F
:100790002BD120E015B101201A49085529E09DB15F
:1007A000194850F82400401C174941F82400084615
:1007B00050F8240003280DD9002041F8240002201D
:1007C00010490855012605E000200F4941F8240092
:1007D0000C4908550DE025B102200A4908550126AB
:1007E00002E000200749085503E0002005490855AC
:1007F00000BF00BF641C022CBBDB3046F8BD00000C
:1008000000010000400000204400002010B5FFF768
:10081000A9FF012821D12020184908600120091DC5
:1008200008600220091F0860002000F065FF012811
:1008300001D1002407E0012000F05EFF012801D172
:10084000012400E010BD0E480078A0B9204600F059
:1008500019F801200A4908700DE0202007490860B6
:10086000012008600220091D08600548007810B1C9
:1008700000200349087000BFE4E70000100C0140AD
:100880004C0000200CB5014617A30CCBCDE900238A
:1008900011B1012925D112E000200CE01DF8002043
:1008A000134B1B789A4205D1421C1DF80220104BB5
:1008B0001A7002E0401C0428F0DB00BF11E00420A5
:1008C0000CE01DF800200A4B1B789A4205D1421E0D
:1008D0001DF80220064B1A700CBD401E0028F0DCEB
:1008E00000BF00BF00BFF7E74452554C4400000072
:1008F0002400002021B1026842F00102026004E0FD
:1009000002684FF6FE731A400260704701684FF6A6
:10091000FE72114001600021016041608160C16090
:100920004B49884208D14A490839496841F00F01CA
:10093000474A083A51608AE045491431884208D153
:1009400043490839496841F0F001414A083A516089
:100950007DE03F492831884208D13D49083949683E
:1009600041F470613A4A083A516070E038493C31CC
:10097000884208D136490839496841F47041344AFF
:10098000083A516063E032495031884208D1304919
:100990000839496841F470212D4A083A516056E0FF
:1009A0002B496431884208D129490839496841F402
:1009B0007001274A083A516049E025497831884258
:1009C00008D123490839496841F07061204A083A42
:1009D00051603CE01F49884206D1011F096841F07F
:1009E0000F01021F116032E01A491431884208D108
:1009F0001849091F096841F0F001164A121F1160D9
:100A000025E014492831884208D11249091F096894
:100A100041F470610F4A121F116018E00D493C311A
:100A2000884208D10B49091F096841F47041094AFD
:100A3000121F11600BE007495031884207D1054968
:100A4000091F096841F47021024A121F11607047A2
:100A5000080002400804024010B50022026847F670
:100A6000F0739A430C6A8B6823430C6923434C69E7
:100A700023438C692343CC6923434C6A23438C6A08
:100A800023431A430260CB6843600B6883604B6862
:100A9000C36010BD704701B502E00098401E009091
:100AA00000980028F9D108BD51B18200A2F1C042DE
:100AB000126842F001038200A2F1C042136009E013
:100AC0008200A2F1C0421268034B1A408300A3F1D6
:100AD000C0431A6070470000FEFF0F00D0E901120A
:100AE0001143C2681143026911434269114382698B
:100AF0001143C2691143026A1143426A1143826A77
:100B00001143C26A1143026B114302689200A2F1C1
:100B1000C0421160816808290BD101688900A1F1E8
:100B2000C041096841F0400201688900A1F1C0415B
:100B30000A60416B0968426B526841EA0211426BDC
:100B4000926841EA0221426B928941EA0241426B7A
:100B5000128A41EA0251426B127D41EA0261426B04
:100B6000926911430268521C9200A2F1C0421160C6
:100B7000C16AB1F5804F1BD1816B0968826B5268E5
:100B800041EA0211826B926841EA0221826B128A69
:100B900041EA0251826B127D41EA0261826B9269E5
:100BA000114302689200A2F1C042C2F8041107E0AA
:100BB0006FF0704201688900A1F1C041C1F80421C1
:100BC00070472DE9F0410246002500260020002351
:100BD0000024002791F803C00CF00F0591F803C022
:100BE0000CF0100CBCF1000F03D091F802C04CEADD
:100BF000050591F800C0BCF1000F31D01468002049
:100C00002BE04FF0010C0CFA00F3B1F800C00CEA35
:100C100003069E4220D183004FF00F0C0CFA03F71D
:100C2000BC4305FA03FC4CEA040491F803C0BCF190
:100C3000280F06D14FF0010C0CFA00FCC2F814C0CA
:100C40000AE091F803C0BCF1480F05D14FF0010C48
:100C50000CFA00FCC2F810C0401C0828D1D3146064
:100C6000B1F800C0BCF1FF0F34DD546800202EE065
:100C700000F1080C4FF0010808FA0CF3B1F800C0BD
:100C80000CEA03069E4221D183004FF00F0C0CFAB0
:100C900003F7BC4305FA03FC4CEA040491F803C0D3
:100CA000BCF1280F05D100F1080C08FA0CF8C2F8C5
:100CB000148091F803C0BCF1480F07D100F1080C73
:100CC0004FF0010808FA0CF8C2F81080401C082800
:100CD000CED35460BDE8F0810246002093680B40FB
:100CE0000BB1012000E000207047416170470161B5
:100CF000704700002DE9F04180460C46104800780E
:100D000020B900F015FE01200D4908702512E6B249
:100D1000A5F1A101C1EB011202EB411106EB41016A
:100D2000A1390802C11700EB5171CF1005483918DD
:100D30002022404600F0D4FD0020BDE8F0810000F4
:100D40001C0000200030180000BFFEE710B504466C
:100D50002CB14FF480510548FFF7C7FF04E04FF472
:100D600080510248FFF7C3FF10BD0000001401408E
:100D70002DE9F04106460F4614461D462B462246F5
:100D80003946304600F00CFB04FB05F002490988A7
:100D900000F0B9F9BDE8F0813E01002001B502E0A4
:100DA0000098401E009000980028F9D108BD00006E
:100DB0002DE9F04389B080468946174610231A462C
:100DC0004946404600F0ECFA2C2000F06BFC394616
:100DD00001A8FFF78FFF002422E001A810F814609B
:100DE0004FF6FF7000EA0626012000EB440001A93F
:100DF000085C064300250FE04FF4004028413040D6
:100E000020B10A48008800F051FC03E0084800883F
:100E100000F04CFC681CC5B2102DEDDB601CC4B2A8
:100E2000102CDADB09B0BDE8F08300003C010020A3
:100E30003E0100202DE9F05F804689461646A6F166
:100E400020001FFA80FA1E49096889881C4A126826
:100E5000D28801FB02F0C11700EB5171C1F3C70743
:100E60001748006800680AFB070B15480068C3882C
:100E70001348006882884946404600F091FA2C20C9
:100E800000F010FC002416E0002510E01BF8040020
:100E900080212941084020B10A48008800F006FC62
:100EA00003E00948008800F001FC681CC5B2082D69
:100EB000ECDB601CC4B2BC42E6DBBDE8F09F000086
:100EC000380100203C0100203E0100202DE9F041C6
:100ED00005460E46144648E020787E2825DC284644
:100EE000244909688988084423490988884205DD1E
:100EF000002520480068C088304486B230461D492D
:100F00000968C98808441D490988884201DD00250F
:100F10000026227831462846FFF78CFF15480068E6
:100F20008088284485B2641C1FE02846103012498E
:100F30000988884203DD002506F1100086B230469C
:100F400010300E490988884201DD002500262788D7
:100F5000380200EB272087B23A4631462846FFF791
:100F600027FF05F1100085B2A41C20780028B3D11A
:100F7000BDE8F0813801002030010020320100205E
:100F80002DE9FF4F83B081464FF0000AD346059804
:100F9000A0EB090504990698461ACDF80490049828
:100FA0000090002D01DD012705E00DB9002702E0CA
:100FB0004FF0FF376D42002E02DD4FF0010806E0D2
:100FC00016B94FF0000802E04FF0FF387642B54204
:100FD00001DD2C4600E034460020029019E0DDE9F6
:100FE000001000F043FBAA44B344A24505DDAAEB80
:100FF000040A0198384480B20190A34505DDABEBAB
:10100000040B0098404480B200900298401C80B2CB
:101010000290611C02988842E1DD07B0BDE8F08FC4
:101020002DE9F04104460D4616461F46DDF81880AE
:10103000B8F1000F0CD03B4632462946204600F05E
:10104000AFF906FB07F01749098800F05CF827E0C4
:10105000A019401E82B22B4629462046FFF790FF7A
:10106000E819401E83B2A019401E82B2E819401E42
:1010700081B22046FFF784FFE819401E83B2224662
:1010800029462046FFF77CFFE919491E8BB2A119BA
:10109000491E8AB2A119491E88B22946FFF770FF7E
:1010A000BDE8F0813C01002000B597B001210802A5
:1010B00000F0DAFB012001900420039080060790E5
:1010C0000020029004900590069008900990082056
:1010D0000A9010200B9000200C900E900F90109012
:1010E0004FF480501190002012901390149001A89A
:1010F0001590169008A8FFF7F1FC01210020FFF7DA
:10110000D3FC17B000BD70B504460D4600262C2058
:1011100000F0C8FA00BF03E0284600F0C7FA761CCA
:10112000A642F9D370BD000008B50121602000F08F
:10113000BBFB03208DF8020018208DF803004FF44C
:101140008040ADF8000069465B48FFF73AFD4FF478
:101150000040ADF8000069465748FFF732FD012016
:10116000ADF8000069465448FFF72BFD0220ADF8AA
:10117000000069465048FFF724FD8020ADF80000CC
:1011800069464E48FFF71DFD4FF48070ADF8000032
:1011900069464A48FFF715FD4FF40070ADF80000AE
:1011A00069464648FFF70DFD4FF48060ADF800003A
:1011B00069464248FFF705FD4FF40060ADF80000B6
:1011C00069463E48FFF7FDFC4FF48050ADF8000043
:1011D00069463A48FFF7F5FC4FF40050ADF80000BF
:1011E00069463648FFF7EDFC4FF48040ADF800004B
:1011F00069463248FFF7E5FC4FF40040ADF80000C7
:1012000069462E48FFF7DDFC4FF48070ADF8000012
:1012100069462948FFF7D5FC4FF40070ADF800008F
:1012200069462548FFF7CDFC4FF48060ADF800001B
:1012300069462148FFF7C5FC03208DF802001820FD
:101240008DF803001020ADF8000069461A48FFF73A
:10125000B8FC2020ADF8000069461748FFF7B1FC44
:101260008020ADF8000069461348FFF7AAFC4FF450
:101270000060ADF8000069460F48FFF7A2FC10209F
:101280008DF8030003208DF802000220ADF8000065
:1012900069460A48FFF795FC10208DF803000320EB
:1012A0008DF802004FF48050ADF800006946024806
:1012B000FFF787FC08BD0000001401400018014042
:1012C00010B50446072C00DD10BD284804702046E8
:1012D00004EBD0714910A4EB410139B9F020244945
:1012E00008804FF4A0702349088006E04FF4A070F6
:1012F0001F490880F0201F490880362000F0D2F9ED
:10130000082141EA441000F0D1F92A2000F0CAF97E
:10131000002000F0CBF9002000F0C8F9144909883A
:10132000491EC1F3072000F0C1F911490978491E8F
:10133000C8B200F0BBF92B2000F0B4F9002000F097
:10134000B5F9002000F0B2F90A490988491EC1F335
:10135000072000F0ABF907490978491EC8B200F030
:10136000A5F92C2000F09EF900BFADE73401002064
:10137000300100203201002010B5FFF7D5FEFFF745
:1013800093FE0120FFF7E2FC00F052F900F038F87C
:1013900002480078FFF794FF10BD000034010020E0
:1013A0002DE9F04104460D4616461F462A2000F05E
:1013B00079F9201200F07AF9E0B200F077F9A1197A
:1013C000491EC1F30F2000F071F9A119491EC8B2DE
:1013D00000F06CF92B2000F065F9281200F066F996
:1013E000E8B200F063F9E919491EC1F30F2000F0DB
:1013F0005DF9E919491EC8B200F058F9BDE8F0815D
:1014000010B5CF2000F04EF9002000F04FF98120F8
:1014100000F04CF9302000F049F9ED2000F042F9DD
:10142000642000F043F9032000F040F9122000F09E
:101430003DF9812000F03AF9E82000F033F98520E9
:1014400000F034F9102000F031F9782000F02EF986
:10145000CB2000F027F9392000F028F92C2000F0EB
:1014600025F9002000F022F9342000F01FF90220B5
:1014700000F01CF9F72000F015F9202000F016F913
:10148000EA2000F00FF9002000F010F9002000F031
:101490000DF9B12000F006F9002000F007F91B203B
:1014A00000F004F9B62000F0FDF80A2000F0FEF884
:1014B000A22000F0FBF8C02000F0F4F8352000F086
:1014C000F5F8C12000F0EEF8112000F0EFF8C5208B
:1014D00000F0E8F8452000F0E9F8452000F0E6F8D3
:1014E000C72000F0DFF8A22000F0E0F8F22000F0C2
:1014F000D9F8002000F0DAF8262000F0D3F8012017
:1015000000F0D4F8E02000F0CDF80F2000F0CEF885
:10151000262000F0CBF8242000F0C8F80B2000F0C3
:10152000C5F80E2000F0C2F8092000F0BFF85420E2
:1015300000F0BCF8A82000F0B9F8462000F0B6F89A
:101540000C2000F0B3F8172000F0B0F8092000F0EC
:10155000ADF80F2000F0AAF8072000F0A7F800204F
:1015600000F0A4F8E12000F09DF8002000F09EF8C3
:10157000192000F09BF81B2000F098F8042000F0E0
:1015800095F8102000F092F8072000F08FF82A203C
:1015900000F08CF8472000F089F8392000F086F838
:1015A000032000F083F8062000F080F8062000F009
:1015B0007DF8302000F07AF8382000F077F80F201E
:1015C00000F074F8362000F06DF8C82000F06EF8D6
:1015D0002A2000F067F8002000F068F8002000F0F2
:1015E00065F8002000F062F8EF2000F05FF82B2093
:1015F00000F058F8002000F059F8002000F056F8EC
:10160000012000F053F83F2000F050F83A2000F09D
:1016100049F8552000F04AF8112000F043F803483B
:10162000FFF7BCFB292000F03DF810BDFCBF020015
:1016300010B502210748FFF758FB40F6FF20FFF7DF
:10164000ADFB02210348FFF752FB40F6FF20FFF7F6
:10165000A5FB10BD0018014070B504460D460123DE
:101660001A4629462046FFF79BFE70BD70B5054619
:101670000C460948008885420CDA084800888442F4
:1016800008DA21462846FFF7E7FF054801880120D0
:10169000FFF739FD70BD000030010020320100204D
:1016A0003C0100204FF0C04108807047014908808C
:1016B000704700000000026008B50121142000F00E
:1016C000F3F80120ADF8000004208DF8030069460E
:1016D0000748FFF776FA4FF40050ADF800000420F9
:1016E0008DF8030069460348FFF76BFA08BD000058
:1016F000000801400010014010B5044614B1012C4F
:101700000BD104E001210648FFF7E6FA10BD4FF4C3
:1017100000510448FFF7E0FAF8E70020F6E7000080
:101720000008014000100140014908807047000096
:101730003E010020024A1080024A118070470000DA
:101740003C0100203E010020014908607047000074
:101750003801002001490880704700003C0100204A
:1017600008B50121082000F09FF82020ADF8000006
:1017700010208DF8030003208DF8020069460F4801
:10178000FFF71FFA0120ADF8000069460B48FFF78C
:1017900018FA0220ADF8000069460848FFF711FA70
:1017A00020210648FFF7A3FA01210448FFF79FFA1A
:1017B00002210248FFF79BFA08BD0000000C01401F
:1017C00000BFFEE77047000070B5002100230F2224
:1017D000C47804B3154C246804F4E064C4F5E064F0
:1017E000210AC1F10403CA40447804FA03F1847861
:1017F0001440214309010E4C0678A155047804F0E9
:101800001F050124AC4005786D11AD0005F1E02500
:10181000C5F8004109E0047804F01F050124AC403C
:10182000044D0678761145F8264070BD0CED00E0B9
:1018300000E400E080E100E002490143024A116057
:10184000704700000000FA050CED00E07047000052
:1018500001460020034A506820F44040084350608D
:10186000704700000010024029B1064A5269024345
:10187000044B5A6104E0034A52698243014B5A61A6
:10188000704700000010024029B1064AD2690243A5
:10189000044BDA6104E0034AD2698243014BDA6106
:1018A000704700000010024029B1064A92690243C5
:1018B000044B9A6104E0034A92698243014B9A61A6
:1018C000704700000010024021B1028842F040023F
:1018D000028004E002884FF6BF731A40028070470E
:1018E00070B505460C46164601211048FFF7FDF974
:1018F000032000F07DF8C4F3074000F079F8C4F34A
:10190000072000F075F8E0B200F072F804E0FF2064
:1019100000F06EF828706D1C301EA6F101018EB229
:10192000F5D101210148FFF7E2F970BD0010014037
:1019300000B587B001210803FFF7B6FF0121D420CD
:10194000FFF7B2FF0120ADF8040003208DF8060078
:1019500010208DF8070001A92248FFF732F9202056
:10196000ADF8040018208DF8070001A91E48FFF704
:1019700028F94020ADF8040001A91B48FFF721F920
:101980008020ADF8040001A91748FFF71AF90121DA
:101990001448FFF7ACF90020ADF808004FF482704E
:1019A000ADF80A000020ADF80C000220ADF80E00E2
:1019B0000120ADF810004002ADF812000820ADF88B
:1019C00014000020ADF816000720ADF8180002A999
:1019D000064800F057F801210448FFF775FF07B0EB
:1019E00000BD00000010014000080140003001402F
:1019F00010B504464FF48050194908600AE01849B0
:101A00000868411E164A116020B9002000F058F8FD
:101A1000C0B210BD0221134800F026F80028EED015
:101A20002146104800F02CF84FF480500C49086013
:101A30000AE00B490868411E094A116020B90120DB
:101A400000F03EF8C0B2E4E70121064800F00CF8CF
:101A50000028EED0034800F010F8C0B2D9E700002B
:101A600000000020003001400246002013890B4096
:101A70000BB1012000E000207047014688897047C3
:101A80008181704710B50022028802F441520B8810
:101A90004C8823438C882343CC8823430C892343DD
:101AA0004C8923438C892343CC8923431A430280E6
:101AB000838B4FF2FF74234083830B8A038210BD14
:101AC00010B50446214602A000F012FC002010BD13
:101AD0003C3C2D464C4153482D4552524F522D3ED1
:101AE0003E2053504920B5C8B4FDB3ACCAB12165FE
:101AF00072726F72436F6465203D2025640A000096
:101B0000704710B500F002F810BD00000CB50020C1
:101B1000019000903348006840F4803031490860FB
:101B200000BF3048006800F4003000900198401C6D
:101B30000190009818B90198B0F5A06FF1D129482B
:101B4000006800F4003010B10120009001E0002096
:101B500000900098012843D12348006840F010000D
:101B6000214908600846006820F003000860084624
:101B7000006840F0020008601A484068194948604F
:101B80000846406848600846406840F48060486005
:101B90000846406820F47C1048600846406840F4DD
:101BA000E81048600846006840F08070086000BF98
:101BB0000C48006800F000700028F9D0094840681F
:101BC00020F00300074948600846406840F00200E2
:101BD000486000BF0348406800F00C000828F9D1B5
:101BE0000CBD0000001002400020024070470000C1
:101BF00010B51348006840F001001149086008461C
:101C00004068104908400E494860084600680E497F
:101C100008400B4908600846006820F480200860EE
:101C20000846406820F4FE0048604FF41F008860BA
:101C3000FFF767FF4FF000600449086010BD000027
:101C4000001002400000FFF8FFFFF6FE08ED00E084
:101C500010B50121064800F01FF838B1FEF7D6FD97
:101C600000F0C0FA0121024800F007F810BD0000A2
:101C700000100040CA4302827047CA430282704784
:101C800021B1028842F00102028004E002884FF68E
:101C9000FE731A400280704730B5024600200023D0
:101CA0000024158A05EA0103958905EA010413B1A8
:101CB0000CB1012000E0002030BD1AB183890B4334
:101CC000838102E083898B438381704700220288ED
:101CD0001D4B98420ED01D4B98420BD0B0F1804F57
:101CE00008D01B4B984205D01A4B984202D01A4B91
:101CF000984204D14FF68F731A404B881A43174B02
:101D0000984207D0164B984204D04FF6FF431A4032
:101D1000CB881A4302808B8883850B8803850A4B06
:101D200098420BD0094B984208D00E4B984205D0F0
:101D30000D4B984202D00D4B984201D10B7A03868D
:101D40000123838270470000002C014000340140D1
:101D50000004004000080040000C0040001000405B
:101D60000014004000400140004401400048014090
:101D700070470000044A12780AB9012200E00022EC
:101D8000014B1A70704700002500002000BFFEE7DD
:101D900001B5002007E00C2100BF0A1EA1F10103DC
:101DA000D9B2FAD1401C00998842F4D308BD000092
:101DB0002DE9FC5F05460C460126684600F0BEF89A
:101DC000002865D0BDF90200FEF78EFA834632483E
:101DD000007800EB400004EBC00041685846FEF775
:101DE00051FA8146BDF90000FEF77EFA83462A4883
:101DF000007800EB400054F830105846FEF742FAE5
:101E000082464946FEF7E6F980462348007800EB13
:101E1000400004EBC00081684046FEF7DBF907464E
:101E2000FEF76BFA00B22880BDF90200FEF75CFAFB
:101E300083461948007800EB400004EBC0000169BC
:101E40005846FEF71FFA8146BDF90000FEF74CFA2E
:101E500083461148007800EB400004EBC000C168E5
:101E60005846FEF70FFA82464946FEF7B3F9804618
:101E70000948007800EB400004EBC000416940468F
:101E8000FEF7A8F90746FEF738FA00B2688000E0CE
:101E900000263046BDE8FC9F3401002008B5012132
:101EA0006020FFF701FD0120ADF800008DF8020071
:101EB00010208DF8030069461A48FEF782FE0420C0
:101EC000ADF8000069461748FEF77BFE0820ADF824
:101ED000000001208DF8020048208DF803006946BB
:101EE0001048FEF76EFE4FF40050ADF800000120E0
:101EF0008DF8020010208DF8030069460A48FEF7AD
:101F000060FE4FF400510848FEF7EFFE1020ADF8D8
:101F1000000048208DF8030069460248FEF751FE94
:101F200008BD0000001801400014014010B504462F
:101F3000204600F0ABF900F0C1F810BD2DE9F047E4
:101F40008CB00646002528216846FEF738F900BF08
:101F50000AA90BA800F09EF8BDF92C002DF8150079
:101F6000BDF9281005A820F81510681CC5B210216D
:101F70004648FEF7B1FE08B90A2DE9DB10214348B7
:101F8000FEF7AAFE10B10020414908700A2D7BD14E
:101F9000BDF90070B846BDF91490CA4601240EE0A0
:101FA0003DF91400B84202DA3DF9147005E03DF93C
:101FB0001400404501DD3DF91480601CC4B20A2CB8
:101FC000EEDB012412E005A830F91400484503DADD
:101FD00005A830F9149007E005A830F91400504521
:101FE00002DD05A830F914A0601CC4B20A2CEADB9B
:101FF000BDF90000BDF902100844BDF90410084401
:10200000BDF906100844BDF908100844BDF90A10CE
:102010000844BDF90C100844BDF90E100844BDF980
:1020200010100844BDF912100844C01BA0EB0800B2
:10203000C01000B23080BDF91410BDF91600014483
:10204000BDF918000144BDF91A000144BDF91C0096
:102050000144BDF91E000144BDF920000144BDF951
:1020600022000144BDF924000144BDF926000844C2
:10207000A0EB0900A0EB0A00C01000B270800120A4
:102080000CB0BDE8F087FFE70020F9E70018014039
:10209000100100202DE9F04104460D469020FFF785
:1020A00045FF06B20120FFF773FED020FFF73EFF89
:1020B00007B226802F80BDE8F081000070B50025B2
:1020C00004211148FEF711FE01210F48FEF70FFE13
:1020D000002414E001210C48FEF707FE08210A48FD
:1020E000FEF7FAFD0646C4F10B0006FA00F028439D
:1020F00085B201210448FEF7FAFD601CC4B20C2C25
:10210000E8DB284670BD00000018014010B500242F
:102110002748007820B1012811D002283FD12FE0B4
:1021200010212448FEF7D8FD20B90120204908706D
:10213000002403E000201E490870002434E0102130
:102140001C48FEF7C9FDA0B91B480068401C1A498D
:10215000086008460068032806D9002008600220AD
:102160001349087001240AE0012011490870002475
:1021700005E00020104908600D490870002413E0B4
:1021800010210C48FEF7A8FD20B90220084908706C
:10219000012403E0002006490870002404E0002028
:1021A00003490870002400BF00BF204610BD000096
:1021B00011010020001801401401002010B5044650
:1021C000B4F90400401C20B9B4F90400401C00B963
:1021D00010BD628891B2228890B2FFF7C9FD00BF9E
:1021E000F6E7000010B51B48007810B100F088FB3E
:1021F00007E02020184908600120091F086002201C
:102200000860FFF783FF012818D120201249091F19
:1022100008600120091D08600220091F08600F499D
:102220000F48FFF7C5FD0E48FFF7C8FF0C480088B0
:102230000B49888008464088C88009E0084800F0BB
:1022400011F84FF0FF300649088048808880C88028
:1022500010BD000025000020140C0140500000209B
:102260002801002010B50446B4F90400401C20B930
:10227000B4F90400401C00B910BDE28891B2A288F4
:1022800090B2FFF777FD00BFF6E7000070B5054696
:1022900004211648FEF729FD01211448FEF725FD0B
:1022A00000241FE0C4F1070045FA00F000F001002F
:1022B00020B104210D48FEF71AFD03E004210B486C
:1022C000FEF713FD0520FFF763FD01210748FEF728
:1022D0000EFD0520FFF75CFD01210448FEF705FD1A
:1022E000601CC4B2082CDDDB70BD0000001801408A
:1022F0000FB4054B10B503A9044A029800F02CF85E
:1023000010BC5DF814FB0000612A000844010020A5
:102310000FB4084B10B504A902AA039800F01CF8EA
:10232000044602A9002000F0B8F9204610BC5DF870
:1023300014FB00009B26000802E008C8121F08C119
:10234000002AFAD170477047002001E001C1121F36
:10235000002AFBD1704700002DE9FF4F8BB0884663
:102360000546002606E025280BD0DDE90D12904732
:102370006D1C761C28780028F5D10FB03046BDE8DA
:10238000F08F0024A146A2460122AE4900E004439A
:1023900015F8013F203B02FA03F00842F7D12878F4
:1023A0002A2810D06FF02F022878A0F130010929D7
:1023B00015D809EB890102EB410144F0020400EB5E
:1023C00001096D1CF0E758F8041B5FEA010903D509
:1023D00044F40054C9F1000944F002046D1C28784B
:1023E0002E2817D115F8010F44F004042A280ED026
:1023F0006FF02F022878A0F1300109290AD80AEBE2
:102400008A0102EB410100EB010A6D1CF2E758F86A
:1024100004AB6D1C28786C280FD006DC4C2817D034
:1024200068280DD06A2814D104E0742810D07A28C6
:102430000FD10DE044F400140AE044F4801401E0EC
:1024400044F440146978814202D104F580146D1C73
:102450006D1C2878692865D006DC00288DD063289B
:1024600027D0642806D15DE06E2808D073282AD0D2
:10247000752877D0DDE90D129047761CE0E0C4F3B3
:102480000250022809D003280DD0D8F800100428E3
:102490000DD00E6008F10408D2E0D8F80010F21751
:1024A000C1E90062F6E7D8F800100E80F2E70E707E
:1024B000F0E718F8041B8DF8001000208DF80100DB
:1024C000EB46012003E058F804BB4FF0FF306107F2
:1024D0004FF0000701D40AE07F1C57450DDA874210
:1024E000FADB1BF807100029F6D106E07F1C8742B3
:1024F000FCDB1BF807100029F8D1DDE90D23A9EB5F
:1025000007008146214600F0B1F83044C61904E0C6
:10251000DDE90D121BF8010B90477F1EF8D2214612
:10252000484688E058F8040BC4F302514FF00A0BF8
:10253000032900D100B2042900D140B2002802DAF8
:1025400040422D2102E0210505D52B218DF82410D4
:10255000012104E006E0E10710D02021F6E708AFF2
:10256000089113E058F8040BC4F302514FF00A0B22
:10257000032900D180B2042900D1C0B20021EEE7C6
:102580005946FDF7D3FE303107F8011D0028F7D179
:10259000ADEB070000F1200B600702D524F4803476
:1025A00001E04FF0010ADA4502DDAAEB0B0000E082
:1025B0000020824600EB0B0108980144A9EB0100C2
:1025C0000A90E00306D4DDE90D2321460A9800F0C5
:1025D0004DF806444FF0000908E009A911F8090078
:1025E000DDE90D12904709F10109761C089989452A
:1025F000F3DBE0030CD5DDE90D2321460A9800F05A
:1026000035F8064404E0DDE90D1230209047761CD1
:10261000BAF10001AAF1010AF5DC05E0DDE90D12CD
:1026200017F8010B9047761CBBF10001ABF1010BD1
:10263000F4DC0A982146DDE90D2300F005F8064494
:102640006D1C97E6092801002DE9F041044600259C
:102650001E461746880404D405E039462020B047BA
:102660006D1C641EF9D52846BDE8F0812DE9F041C6
:10267000044600251E469046C80301D5302700E0D9
:102680002027880404D505E041463846B0476D1C34
:10269000641EF9D52846BDE8F0810A68531C0B601A
:1026A0001070704710B51F49081F00F00BFAFDF7B6
:1026B0005BFD0A2190FBF1F201FB120030B1012811
:1026C0000BD0022810D003281BD113E0012015499C
:1026D000091F08724FF6A0441AE002201149091F91
:1026E000087240F6663413E003200E49091F087291
:1026F0001F240DE004200B49091F087240F2FF74EB
:1027000006E000200749091F08724FF4784400BF13
:1027100000BF0448001F42680168204600F072F8BC
:1027200010BD00005401002007480068074A1268E5
:102730005043074AB0FBF2F1C81C064A50434A1CFA
:10274000B0FBF2F0704700003400002028000020A9
:10275000FFFF0F00AAAA020070B586B025480068E6
:10276000006800EB8000450022480068406800EBEC
:102770008000142101EB40061FA0006805901F4B4C
:102780000FCB01AC0FC400242FE005A8005D1C494D
:102790000978884228D14FF6FF710020FEF7CAFF62
:1027A000012001AA02EB840200905278324491B2D7
:1027B00001AA12F824202A4490B202231A46FEF7F6
:1027C0002FFC012001AA02EB84020090D27832444F
:1027D00091B201AA02EB840292782A4490B20223B9
:1027E0001A46FEF71DFC02E0641C042CCDDB00BF82
:1027F00006B070BD2000002055444C52FC6A000811
:1028000024000020F8B506460C4615463046FEF773
:10281000A1FF012005EB8502142303EB420291B2D4
:1028200004EB84024FF6FF73009003EA42000A2390
:102830001A46FEF7F5FBF8BD38B5044601200090B6
:10284000A28802EB8202142303EB420291B22268B7
:1028500002EB82024FF6FF7303EA42000A231A4694
:10286000FEF7DEFB38BD000000B585B04FF6FF7106
:102870001F20FEF75FFF1423F02219460020FEF709
:102880007FFB1448FEF760FF0020FEF763FF12484D
:1028900012A102686846FFF73BFD6A460421082042
:1028A000FEF714FB104811A102686846FFF730FDDF
:1028B0006A4604217020FEF709FB0E480EA102684B
:1028C0006846FFF725FD6A460421A020FEF7FEFAC0
:1028D00005B000BD040000202800002053636F7283
:1028E000653A2564000000003800002048503A2571
:1028F000640000002C00002048493A2564000000D4
:102900002DE9F0418AB04FF0190824224E4901A860
:10291000FDF73CFC4D4800784D490968C1F11901AB
:1029200048434C4909784A4A126801FB02001921C0
:10293000B0FBF1F085B24548407845490968C1F1DE
:102940001901484343494978414A126801FB020092
:102950001921B0FBF1F086B23C4880783C49096807
:10296000C1F1190148433B498978394A126801FB92
:1029700002001921B0FBF1F087B23748017801203D
:1029800000FA01F401A830F81500204018B1202009
:102990003249086003E020203049091F086001A87F
:1029A00030F81600204018B101202C49086003E0DF
:1029B00001202A49091F086001A830F817002040AB
:1029C00018B102202549086003E002202349091FAD
:1029D000086021480068401C1F490860102830D357
:1029E000002008601A480068401C1949086019282E
:1029F00027D300200860174800781449087015484C
:102A000040784870134880788870FDF7ADFB044625
:102A10001120B4FBF0F100FB11400E4908701120A9
:102A2000B4FBF0F4B4FBF0F100FB1140094948702D
:102A30001120B4FBF0F4B4FBF0F100FB11400549A8
:102A400088700AB0BDE8F0810C6B00081B01002003
:102A5000200100201801002024010020140C014056
:102A600038B504468DF8000069460320ABBE204609
:102A700038BD000010B5002821D0114B0022001FE6
:102A8000196803E0814203D80A4649680029F9D150
:102A900052B11368841A9C4204D100681844106033
:102AA000104602E0506000E0186039B102680B1A6D
:102AB000934203D10B681A4402604968416010BD1B
:102AC000480100202DE9F0410746884600BF134821
:102AD0000088FDF753FBFDF747FB162190FBF1F251
:102AE00001FB1200451CFDF73FFB1C2190FBF1F29E
:102AF00001FB1200461C0A48046807E02068A8424F
:102B000003D16068B04200D1E1E7A468A068002862
:102B1000F4D13D60C8F80060BDE8F0813C000020C1
:102B20002000002070B50C2000F0CAF804461E20DA
:102B300020600A2060600020A060154815490860E8
:102B4000022015490860012512E00C2000F0B8F8B9
:102B500012490860084600688460C5F114000968DD
:102B600008600A200D49096848600C4804686D1C1B
:102B7000062DEADB06E04FF4FC60D4E90012FFF713
:102B800041FEA468A0680028F5D1FFF7E5FD70BDFF
:102B9000FFFF0F003400002038000020200000203C
:102BA00010B50446FDF724FD2046FEF789FB002002
:102BB0000E4908604C200E4908704FF6FF70FEF772
:102BC000B3FD0C4803880C48028800210846FEF734
:102BD000CFF8FFF749FEFFF7A5FFFFF763FD0122DE
:102BE00011460648FFF769F810BD000028000020D4
:102BF000240000203201002030010020001000409D
:102C000010B5224800680068401C70B11F48006879
:102C10004068401C48B11D4800680068182804D06E
:102C20001A48006840681E2802D10120184908602F
:102C30001648006884680FE014492068096809682C
:102C4000884208D11148006840686168884202D112
:102C500001200F490860A468002CEDD10C480068E1
:102C6000012811D10B48006801280DD00020084927
:102C7000086008480068401E06490860034801686B
:102C8000091D0068FFF71EFF10BD00002000002096
:102C90003000002038000020FEF76EFBFFF7FEF842
:102CA000FDF724FDFEF75CFDFEF706FD0348007806
:102CB000FFF776FF01E000F039F8FCE7340100206F
:102CC000F0B50B30154D20F007010024144A0FE039
:102CD00003688B420BD38B4205D95E1A43184768B1
:102CE000C3E9006700E04368136002C004E0021D0E
:102CF00010680028ECD12046002802D1286808B1CD
:102D00000020F0BD064A07481060074A121A22F058
:102D10000702C0E9002401202860D7E74C01002009
:102D20004801002064010020601100202DE9F047D7
:102D300071480068076870480068D0F804800C206B
:102D4000FFF7BEFF05466D48006800287ED16C483D
:102D500000780128FAD16B48007844280DD04C281F
:102D600006D0522802D055280AD103E07F1C07E084
:102D70007F1E05E0A8F1010802E008F1010800BF8C
:102D800000BF2F60C5F804805F4928680968884241
:102D900043D15D496868496888423ED15648006819
:102DA000A860554805605848007A052827D2DFE812
:102DB00000F003092014170054480068401C5349D0
:102DC00008601CE05148006808B9012002E04F4843
:102DD000006840004D49086011E000F0B3F80EE0D3
:102DE0004B48006880000521B0FBF1F048490860BD
:102DF00005E048480068401C4649086000BF00BF25
:102E00004248006844490968884203D93F4800683D
:102E100041490860FFF746FC17E037480068A860A2
:102E200035480560046800E0A468A0688068002850
:102E3000FAD14FF6FF70FEF78DFCA068FFF7FCFC9F
:102E4000A068FFF717FE0020A06000E011E04FF43B
:102E5000FC60FEF77FFC2848046803E02046FFF78B
:102E6000EBFCA468A0680028F8D1FFF7FDFCFFF791
:102E700073FCFFF7C5FE21480068012835D14FF6E5
:102E8000FF714FF47840FEF755FC2448FEF75CFCD8
:102E900023A278210C20FEF719F82448FEF754FCF1
:102EA00023A29D214020FEF711F8FFF7DDFC002250
:102EB00001212348FEF701FF00BFFDF753FC012865
:102EC000FBD10D480668344604E0B4683046FFF78D
:102ED000D1FD2646002CF8D12046FFF7CBFD062079
:102EE000FFF75EFE002005490860FFF71DFC8146E4
:102EF000FDF7D1FDBDE8F087200000203000002064
:102F0000250000202400002050010020280000207F
:102F100034000020380000202C0000201400002085
:102F200047616D65206F7665720000000400002027
:102F3000B5E3BBF7C8CED2E2B4A6BFAACABC0000B4
:102F40000010004070B514480468002501E06D1CB5
:102F5000A468002CFBD1284605EBD0714D104FF62C
:102F6000FF70FEF7F7FB0C48046804E02046FFF70B
:102F700063FCA4686D1E002DF8DC08E0A6683046EE
:102F8000FFF75AFCB068A0603046FFF773FDA068F9
:102F90000028F3D170BD00002000002000000000D8
:102FA0000000000000000000000000000000001809
:102FB000181818181808000818000000000000343D
:102FC0002424240000000000000000000000000095
:102FD00016247F2424247E242400000000000008FE
:102FE0003E6848681C1612127C1010000000006138
:102FF000D296740810162949C6000000000000008F
:103000003C646438724ACE467F000000000000181D
:103010001818180000000000000000000000000464
:10302000081810303030301010180C040000002048
:103030001008080C0404040C0818102000000008F4
:103040000A341C6A080000000000000000000000B4
:1030500000001818187F1818180000000000000061
:1030600000000000000000181808300000000000F8
:1030700000000000003C0000000000000000000014
:10308000000000000000001818000000000000020E
:1030900006040C080810102020400000000000006A
:1030A0003C6642475B7342663C0000000000000043
:1030B00018784808080808087E0000000000000092
:1030C0003C460606040810207E00000000000000B8
:1030D0007C0606043C0202067C00000000000000A2
:1030E0000C1C14246444FF040400000000000000D1
:1030F0007E6060607E0202067C000000000000002E
:103100001E306048764242623C0000000000000031
:103110007E0206040C0818103000000000000000B9
:103120003C6242361C6642423C0000000000000047
:103130003C664242661A020478000000000000006B
:10314000000018180000001818000000000000001F
:1031500000001818000000181808300000000000D7
:10316000000004183060100C060000000000000091
:10317000000000007E007E00000000000000000053
:103180000000301804060C10200000000000003081
:103190001C06060618100010100000000000001C9D
:1031A000224141DDB5A5A5AF94C0403C0000000020
:1031B000181C342426627E43C10000000000000079
:1031C0007C4642467C4242427C00000000000000F7
:1031D0001E204040404040603E00000000000000D3
:1031E0007C46424343434246780000000000000012
:1031F0007E6060607E6060607E0000000000000015
:103200007E6060607E606060600000000000000022
:103210001E604040CE4242623E00000000000000BE
:10322000424242427E424242420000000000000010
:103230007E181818181818187E00000000000000EA
:103240007C0404040404044478000000000000002E
:103250004244485070584C444200000000000000B6
:1032600020202020202020203E0000000000000020
:103270006266675F5B5BC1C1C100000000000000C7
:10328000626272525A4A4E46460000000000000038
:103290003C6243C3C3C343623C0000000000000023
:1032A0007C4642424678404040000000000000005A
:1032B0003C6243C3C3C343623C180F0000000000DC
:1032C0007C6662667C6C6466620000000000000040
:1032D0003E6040601C0602027C000000000000000E
:1032E0007F1818181818181818000000000000009F
:1032F00042424242424242623C0000000000000062
:10330000C14342622624341C180000000000000063
:10331000C1C141495B5B76666600000000000000A9
:1033200043663418181C2466C30000000000000027
:10333000C14266341C181818180000000000000074
:103340007E02040C181020607E0000000000001CAB
:1033500010101010101010101010101C0000004061
:103360002020101008080C04060200000000003C99
:103370000C0C0C0C0C0C0C0C0C0C0C3C000000008D
:10338000181C246200000000000000000000000083
:103390000000000000000000000000FF000000200E
:1033A000100000000000000000000000000000000D
:1033B00000003C06023E42467A0000000000004049
:1033C00040405C62424242427C000000000000003B
:1033D00000001E20604060203E000000000000024F
:1033E00002023E62424242663A00000000000000D3
:1033F00000003C62427E40603E0000000000000F82
:103400001810107E101010101000000000000000B6
:1034100000003F66426658403E43423C0000004088
:1034200040405C62424242424200000000000018FC
:1034300018007808080808087E0000000000000452
:103440000C007C040404040404040C7800000060F4
:103450006060626C78706864620000000000007850
:1034600008080808080808087E000000000000009E
:103470000000764B4B4B4B4B4B0000000000000014
:1034800000005C6242424242420000000000000034
:1034900000003C62424342623C0000000000000029
:1034A00000005C62424242427C404040000000001A
:1034B00000003E62424242663A0202020000000000
:1034C00000006E7263606060600000000000000039
:1034D00000003E20203C06027C00000000000000AE
:1034E0001010FE10101010101E0000000000000050
:1034F00000004242424242663A00000000000000E2
:103500000000434266243418180000000000000048
:103510000000C1C15B5A5E6666000000000000004A
:10352000000062261C181C2662000000000000003B
:10353000000043426624341C181830E000000000EC
:1035400000007E060C1810207E0000000000000E17
:1035500018101010307010101010180E000008080D
:1035600008080808080808080808080800000030CB
:10357000180808080C0E0808080818300000000099
:1035800000000000714B0600000000000000000079
:10359000000000000000000000000000000000002B
:1035A000000000000000000000000000000000001B
:1035B000000000000000000000000000000000000B
:1035C0000000000000000380018001800180018074
:1035D000018001800180018001800000000003C0A3
:1035E00003C0000000000000000000000000000018
:1035F0000000000000000E700E700E700C30000015
:1036000000000000000000000000000000000000BA
:1036100000000000000000000000000000000000AA
:1036200000000000000000000618063806307FFE8B
:103630000C300C300C300C307FFE0C601C601860BD
:103640001860000000000000000000000000000002
:103650000000000000C000C00FF83CC831C031803D
:103660003D801F8003F001F8031C030C031C3FF88E
:103670003FE007000600000000000000000000001E
:10368000000000001C007E0E630C631863307E6037
:1036900000C001800300077C0EE61CC618C630C6B9
:1036A000607C00000000000000000000000000003E
:1036B0000000000000000FE01CF0387038701C6043
:1036C0001FC00F003F8C71CC60EC607C70383CFCFC
:1036D0001FCE0000000000000000000000000000FD
:1036E00000000000000003C0018001800180000094
:1036F00000000000000000000000000000000000CA
:1037000000000000000000000000000000000000B9
:1037100000000000003000E001C00180030007004D
:10372000060006000E000E000E000E000600070048
:103730000300038001C000E0003000000000000032
:10374000000000000C0006000380018001C000E0C2
:10375000006000600070007000700060006000E0B9
:1037600000C00180038006000C0000000000000083
:10377000000000000000018011881DB803C007E0B0
:103780003DBC018801800000000000000000000036
:103790000000000000000000000000000000000029
:1037A0000000000000000000000000000180018017
:1037B0000180018001807FFE018001800180018005
:1037C00000000000000000000000000000000000F9
:1037D00000000000000000000000000000000000E9
:1037E00000000000000000000000000003C003C053
:1037F00001C001C003801F000000000000000000A5
:1038000000000000000000000000000000000000B8
:103810000000000000000FF00000000000000000A9
:103820000000000000000000000000000000000098
:103830000000000000000000000000000000000088
:1038400000000000000000000000000003C003C0F2
:1038500003C00000000000000000000000000000A5
:10386000000000000000001800380030006000E098
:1038700000C001C001800300030006000E000C0020
:103880001C001800300000000000000000000000D4
:1038900000000000000001800FF01C38381C301CB4
:1038A000707E70EE738E7E0E7C0C300C381C1E7891
:1038B0000FE0000000000000000000000000000019
:1038C000000000000000000007C01FC039C001C098
:1038D00001C001C001C001C001C001C001C03FFC66
:1038E0003FFC00000000000000000000000000009D
:1038F00000000000000003801FF018380038001896
:1039000000380038007001E0038007001C003FFC15
:103910003FFC00000000000000000000000000006C
:1039200000000000000007801FF000380038003859
:10393000003007E007F00038001C001C001820F8D9
:103940003FE0000000000000000000000000000058
:10395000000000000000000000F001B0033007305C
:103960000E301C30383070307FFE7FFE003000306B
:103970000030000000000000000000000000000017
:1039800000000000000000001FF8180018001800D8
:1039900018001FE000F8001C001C001C003800F09C
:1039A0001FC0000000000000000000000000000038
:1039B000000000000000000003F80F001C001800C9
:1039C000300037F83C3C300C300C380C381C1E38BA
:1039D0000FF00000000000000000000000000000E8
:1039E00000000000000000003FFC001C0018003830
:1039F0000070006000E001C0018003800700060045
:103A00000E000000000000000000000000000000A8
:103A100000000000000003C01FF8381C381C381CD0
:103A20001C380FF007F01C78381C300C381C3C3860
:103A30000FF0000000000000000000000000000087
:103A400000000000000003801FF03838301C701C9C
:103A5000700C380C1FFC0FCC001C001800701FE00D
:103A60001F800000000000000000000000000000B7
:103A7000000000000000000000000000000003C083
:103A800003C00180000000000000000003C003C06C
:103A900003C0000000000000000000000000000063
:103AA000000000000000000000000000000003C053
:103AB00003C00180000000000000000003C003C03C
:103AC00001C001C003800F000000000000000000E2
:103AD000000000000000000000000000003800F0BE
:103AE00001C007001E0038000E00078001C00070F2
:103AF0000030000000000000000000000000000096
:103B000000000000000000000000000000000000B5
:103B100000003FFC000000003FFC3FFC00000000F4
:103B20000000000000000000000000000000000095
:103B30000000000000000000000000001C000F005A
:103B4000038001E00078001C007001E003800E009B
:103B50000C00000000000000000000000000000059
:103B60000000000000000FC000F0003800380038EE
:103B7000003803F00380030003000000000007800A
:103B800007800000000000000000000000000000AE
:103B90000000000000E007F80C0C18063006700367
:103BA00063F36633C673CC63CC62CC66CCE6C7FCE9
:103BB000E0006000700038101FF0000000000000FE
:103BC000000000000000000003C007E006E00E70E7
:103BD0000E700C301C3818183FFC3FFC700E600E45
:103BE000E0070000000000000000000000000000EE
:103BF00000000000000000003FF03838381C381C7E
:103C000038383FF03FF8381C380C380C381C3FF877
:103C10003FE0000000000000000000000000000085
:103C200000000000000000E007FC1E04380038001F
:103C30003000700070007000300038003C001F9CA5
:103C400007FC000000000000000000000000000071
:103C500000000000000000003FF03078301C300C05
:103C6000300E300E300E300E300E301C30383FF03B
:103C70003FC0000000000000000000000000000045
:103C800000000000000000001FF8180018001800D5
:103C900018001FF81FF818001800180018001FF867
:103CA0001FF80000000000000000000000000000FD
:103CB00000000000000000001FF8180018001800A5
:103CC00018001FF81FF81800180018001800180036
:103CD00018000000000000000000000000000000CC
:103CE00000000000000000F007FC1E043800300057
:103CF0007000700070FC700C700C300C380C1F1CC5
:103D000007FC0000000000000000000000000000B0
:103D10000000000000000000300C300C300C300CB3
:103D2000300C3FFC3FFC300C300C300C300C300CB5
:103D3000300C000000000000000000000000000047
:103D400000000000000000003FFC018001800180B5
:103D500001800180018001800180018001803FFCA1
:103D60003FFC000000000000000000000000000018
:103D700000000000000000001FF0003000300030A4
:103D800000300030003000300030003000701DE0A6
:103D90001FC0000000000000000000000000000044
:103DA0000000000000000000381C387038E039C006
:103DB0003B803F003F003B8039C038E038703838E6
:103DC000381C00000000000000000000000000009F
:103DD00000000000000000001C001C001C001C0073
:103DE0001C001C001C001C001C001C001C001FFCF4
:103DF0001FFC0000000000000000000000000000A8
:103E00000000000000000000381C7C3C6C3E6E6E20
:103E1000666E66CE63C6638661866006600660066F
:103E2000600600000000000000000000000000002C
:103E300000000000000000003C0C3C0C3E0C360C66
:103E4000330C338C318C31CC30EC306C307C303CEA
:103E5000301C000000000000000000000000000016
:103E600000000000000001C00FF81C3C381C700E60
:103E7000700E60066006700E700E700C381C1E7896
:103E80000FE0000000000000000000000000000043
:103E900000000000000000003FF0383C381C380CE7
:103EA000380C381C38783FE03800380038003800CB
:103EB00038000000000000000000000000000000CA
:103EC00000000000000001C00FF81C3C381C700E00
:103ED000700E60066006700E700E700C381C1E7836
:103EE0000FE0018001C000FF003C00000000000066
:103EF00000000000000000003FF038383818381883
:103F0000383838F03FC038E0387038383838381C26
:103F1000380E00000000000000000000000000005B
:103F200000000000000001E00FF838003800380001
:103F30003C001F8003F00078001C001C001C387837
:103F40003FE0000000000000000000000000000052
:103F500000000000000000007FFE01800180018061
:103F60000180018001800180018001800180018049
:103F700001800000000000000000000000000000C0
:103F80000000000000000000300C300C300C300C41
:103F9000300C300C300C300C300C300C381C1C3811
:103FA0000FF0000000000000000000000000000012
:103FB0000000000000000000E006700E700E381CCB
:103FC000381C1C181C380C300E70066007E003C04B
:103FD00003C000000000000000000000000000001E
:103FE0000000000000000000600660066006600639
:103FF0006186638673C673CE766C366C3C3C3C3C03
:10400000381C00000000000000000000000000005C
:104010000000000000000000301C38181C380E7032
:1040200007E003C003C007E00E701C381838381CC6
:10403000700E000000000000000000000000000002
:104040000000000000000000700E700C381C1C38CE
:104050000E70066007E003C00180018001800180CE
:1040600001800000000000000000000000000000CF
:1040700000000000000000003FFC001C0038007041
:1040800000E001C0038007000E000C0018003FFC98
:104090003FFC0000000000000000000000000000E5
:1040A0000000000007F007F006000600060006000A
:1040B00006000600060006000600060006000600D0
:1040C000060006000600060007F0000000000000E1
:1040D00000000000000018001C000C000600070093
:1040E00003000380018001C000C000600070003048
:1040F00000380018000C0000000000000000000064
:10410000000000000FE00FE0006000600060006051
:10411000006000600060006000600060006000609F
:1041200000600060006000600FE000000000000020
:10413000000000000000000003C006C006600C3054
:104140001818301C000000000000000000000000F3
:10415000000000000000000000000000000000005F
:10416000000000000000000000000000000000004F
:10417000000000000000000000000000000000003F
:104180000000000000000000FFFF00000000000031
:104190000000000000001E0003800000000000007E
:1041A000000000000000000000000000000000000F
:1041B00000000000000000000000000000000000FF
:1041C00000000000000000000000000000001FF0E0
:1041D0001038001C001C0FFC1C1C381C381C3CFC3C
:1041E0001FDC0000000000000000000000000000D4
:1041F00000000000000038003800380038003BF8AC
:104200003E1C3C1C380C380C380C380C381C3C78E4
:104210001FE000000000000000000000000000009F
:10422000000000000000000000000000000007F88F
:104230000E001C0038003800380038001C000F1831
:1042400007F800000000000000000000000000006F
:10425000000000000000001C001C001C001C0FFCE3
:104260001C1C381C301C301C301C301C383C1CFC06
:104270000F9C000000000000000000000000000093
:1042800000000000000000000000000000000FF02F
:104290001C38381C300C3FFC3000300038001E0C3D
:1042A00007FC00000000000000000000000000000B
:1042B00000000000003C01FE038003000300030037
:1042C0007FFC7FFC030003000300030003000300E6
:1042D00003000000000000000000000000000000DB
:1042E00000000000000000000000000000000FFEC1
:1042F0001C383818381818381FF03B8030003FF051
:104300001FFC300E700E381C1FF80000000000006B
:1043100000000000000038003800380038003BF88A
:104320003E383C1C381C381C381C381C381C381CC7
:10433000381C000000000000000000000000000029
:1043400000000000018003C003C0000000001FC087
:1043500001C001C001C001C001C001C001C001C055
:104360003FFC000000000000000000000000000012
:1043700000000000002000700070000000003FF00E
:1043800000700070007000700070007000700070AD
:1043900000700070007020E03FC0000000000000CE
:1043A0000000000000001800180018001800183C59
:1043B000187018E01B801F001B8019E01870183857
:1043C000181C0000000000000000000000000000B9
:1043D0000000000000001FC001C001C001C001C0FA
:1043E00001C001C001C001C001C001C001C001C0C5
:1043F0003FFC000000000000000000000000000082
:1044000000000000000000000000000000006F3C01
:1044100079EE71CE718E718E718E718E718E718EFC
:10442000718E00000000000000000000000000008D
:1044300000000000000000000000000000003BF849
:104440003E383C1C381C381C381C381C381C381CA6
:10445000381C000000000000000000000000000008
:1044600000000000000000000000000000000FF04D
:104470001C3C381C700E700E700E700C381C1E78B0
:104480000FE000000000000000000000000000003D
:1044900000000000000000000000000000003BF8E9
:1044A0003E1C3C1C380C380C380C380C381C3C7842
:1044B0003FE03800380038003800000000000000FD
:1044C00000000000000000000000000000000FFCE1
:1044D0001C1C381C301C301C301C301C383C1CFC94
:1044E0000F9C001C001C001C001C000000000000B1
:1044F000000000000000000000000000000019F8AB
:104500001F1C1C0C180E18001800180018001800AA
:104510001800000000000000000000000000000083
:1045200000000000000000000000000000000FF884
:104530001C0018001E000FC001F8001800181838E1
:104540001FF000000000000000000000000000005C
:1045500000000000000000000600060006007FFCCE
:104560000600060006000600060006000700078495
:1045700001FC00000000000000000000000000003E
:104580000000000000000000000000000000381CD7
:10459000381C381C381C381C381C381C383C1CFC97
:1045A0000FDC000000000000000000000000000020
:1045B0000000000000000000000000000000700C7F
:1045C000381C38181C380C300E70066007E003C029
:1045D00003C0000000000000000000000000000018
:1045E0000000000000000000000000000000600665
:1045F00060066186738E73CC33CC366C366C3C3C73
:104600003C38000000000000000000000000000036
:104610000000000000000000000000000000381C46
:104620001C380E7007E003C003C007E00E701C3892
:10463000381E000000000000000000000000000024
:104640000000000000000000000000000000700CEE
:10465000381C38181C380C300E70066007E003C098
:1046600003C0038007000E007C0000000000000073
:1046700000000000000000000000000000001FF823
:104680000038007000E001C0038007000C001FFC30
:104690003FFC0000000000000000000000000000DF
:1046A00000000000007801F803800380038003808D
:1046B000038003003F003E0003000380038003806B
:1046C00003800380038001C000F8000000000000A8
:1046D00001800180018001800180018001800180D2
:1046E00001800180018001800180018001800180C2
:1046F0000180018001800180018000000000000035
:10470000000000001E001F80018001C001C001C028
:1047100001C000C000FC007C00C001C001C001C09D
:1047200001C001C001C003801F00000000000000A4
:104730000000000000000000000000000000000079
:1047400000001C003F0671CE60FC0000000000006D
:104750000000000000000000000000000000000059
:104760000000000000000000000000000000000049
:104770000000000000000000000000000000000039
:104780000000000000000000000000000000000029
:104790000000000000000000000000000000000019
:1047A0000000000000000000000000000000000009
:1047B00000000000000000000000000000000000F9
:1047C0000000000000000000000000000000003CAD
:1047D00000003C00003C00003C00003C00003C00AD
:1047E000003C00003C00003C00003C00003C00009D
:1047F0003C00003C00003C00000000000000003CC9
:1048000000007E00003C00000000000000000000EE
:104810000000000000000000000000000000000098
:10482000000000000000000000000000000003C3C2
:10483000E003C3E003C3C003C3C003C3C003C3C0DA
:1048400003C1C000000000000000000000000000E4
:104850000000000000000000000000000000000058
:104860000000000000000000000000000000000048
:104870000000000000000000000000000000000038
:104880000000000000000000000000000000000028
:104890000000000001E0E001C0E001C0E001C0E074
:1048A0003FFFFE3FFFFE03C1C00381C00381C00381
:1048B00081C07FFFFC7FFFFC078380070380070325
:1048C0008007038007078000000000000000000050
:1048D00000000000000000000000000000000000D8
:1048E0000000000000000000000000000700000FB2
:1048F00000000E0001FFF007FFF01F0E001E1E005B
:104900001E1C001E1C000FDC0007FC0000FF8000C6
:104910003FF00038F800387800783C00707830714B
:10492000F83FFFE01FFF0000E00000E00000E000B3
:104930000000000000000000000000000000000077
:1049400000000000000000000000000000000F80D8
:104950000F3FE01E78703C7070707070E07071C036
:104960003FE3801FC700000E00001C00007800001D
:10497000F0F001E7FC03CF0E078E0E0F0E0E1E0E99
:104980000E3C07BC7003F8000000000000000000AF
:104990000000000000000000000000000000000017
:1049A0000000000000000000000000000000000007
:1049B0000001FF0007FF800F03C00F03C00F03C0FB
:1049C0000F0780079F0003FE0003F0000FF83C3E36
:1049D0007C3C3C1F3C780FF87807F87C01F03E03E4
:1049E000F81FFFFC07FE1F00000000000000000091
:1049F00000000000000000000000000000000000B7
:104A00000000000000000000000000000000003E68
:104A100000003C00003C00003C00003C00003C006A
:104A2000003C00000000000000000000000000004A
:104A30000000000000000000000000000000000076
:104A40000000000000000000000000000000000066
:104A50000000000000000000000000000000000056
:104A600000000000000000000000000000800001C5
:104A7000C0000780000F00001E00003C000078000E
:104A800000F00000E00001E00001E00001C00003D0
:104A9000C00003C00001C00001E00001E00000F020
:104AA0000000F000007800003C00001E00000F0035
:104AB0000007C00001C0000000000000000000006E
:104AC000000000000000000000000000000003C023
:104AD0000001E00000F000007C00003E00001E002D
:104AE000000F000007800007800003800003C00063
:104AF00003C00003C00003C000038000078000075C
:104B000080000F00001E00003C0000780000F00054
:104B100001E0000380000000000000000000000031
:104B20000000000000000000000000000000001C69
:104B300000001C000018000F18F007DBE0007F00E9
:104B400000FF0007DBE00E1870001800001C0000DA
:104B50001C00000000000000000000000000000039
:104B60000000000000000000000000000000000045
:104B70000000000000000000000000000000000035
:104B80000000000000000000000000000000000025
:104B900000000000000000000000000000003C00D9
:104BA000003C00003C00003C00003C00003C003F9A
:104BB000FFFC3FFFFC003C00003C00003C00003CD0
:104BC00000003C00000000000000000000000000A9
:104BD00000000000000000000000000000000000D5
:104BE00000000000000000000000000000000000C5
:104BF00000000000000000000000000000000000B5
:104C000000000000000000000000000000000000A4
:104C10000000000000000000000000007C00007E9A
:104C200000007E00003E00001E00003C0000F80076
:104C300007E0000400000000000000000000000089
:104C40000000000000000000000000000000000064
:104C50000000000000000000000000000000000054
:104C60000000000000000000000000000000000341
:104C7000FFE003FFE0000000000000000000000073
:104C80000000000000000000000000000000000024
:104C90000000000000000000000000000000000014
:104CA0000000000000000000000000000000000004
:104CB00000000000000000000000000000000000F4
:104CC00000000000000000000000000000000000E4
:104CD0000000000000000000000000007C0000FE5A
:104CE0000000FE00007E0000000000000000000048
:104CF00000000000000000000000000000000000B4
:104D000000000000000000000000000000000000A3
:104D1000780000F00000E00001E00003C000038024
:104D2000000780000F00000E00001E00003C000085
:104D3000380000700000F00000E00001C00003C077
:104D4000000780000700000F00001E00001C00008C
:104D50000000000000000000000000000000000053
:104D60000000000000000000000000000000000043
:104D70000000000001FFC007FFE00F00F01E0078F8
:104D80001E003C3C00FC3C07FC3C1FBC3C7C1C3D2A
:104D9000F03C3FC03C3F003C1E00381E00780F80B6
:104DA000F007FFE001FF80000000000000000000AD
:104DB00000000000000000000000000000000000F3
:104DC00000000000000000000000000000000000E3
:104DD00000000000007E0003FE001FDE000E1E002B
:104DE000001E00001E00001E00001E00001E00002D
:104DF0001E00001E00001E00001E00001E00001EFF
:104E0000000FFFF80FFFF800000000000000000096
:104E10000000000000000000000000000000000092
:104E20000000000000000000000000000000000082
:104E30000000000003FF800FFFE00E01F00000F013
:104E40000000F00000F00000F00001E00003C000EE
:104E50000F80003E00007C0001F00003C0000F80C6
:104E6000001FFFFC1FFFFC0000000000000000000E
:104E70000000000000000000000000000000000032
:104E80000000000000000000000000000000000022
:104E9000000000000FFF800FFFE00001E00000F0C5
:104EA0000000F00001E00003C001FF0001FFC000AE
:104EB00003F000007800007800007800007800011E
:104EC000F00FFFC00FFF0000000000000000000016
:104ED00000000000000000000000000000000000D2
:104EE00000000000000000000000000000000000C2
:104EF00000000000000FC0001FC0003FC0007BC0CA
:104F000000F3C001E3C003C3C00783C00F03C01C8C
:104F100003C03803C07FFFFE7FFFFE0003C0000315
:104F2000C00003C00003C00000000000000000003B
:104F30000000000000000000000000000000000071
:104F40000000000000000000000000000000000061
:104F5000000000000FFFE00FFFE00F00000F000057
:104F60000F00000F00000F00000FFF800FFFE00098
:104F700000F00000780000780000780000F00003E6
:104F8000E00FFFC00FFE0000000000000000000066
:104F90000000000000000000000000000000000011
:104FA0000000000000000000000000000000000001
:104FB00000000000003FF001FFF003E00007800068
:104FC0000F00001E00001E1F001FFFE01FC1F81E83
:104FD00000781E003C1E003C1E003C0F00780F8035
:104FE000F807FFE001FF8000000000000000000063
:104FF00000000000000000000000000000000000B1
:1050000000000000000000000000000000000000A0
:10501000000000001FFFFC1FFFFC0000780000F0F4
:105020000000E00001E00003C0000780000F000066
:105030000F00001E00003C0000780000F00001F0AE
:105040000001E00003C000000000000000000000BC
:105050000000000000000000000000000000000050
:105060000000000000000000000000000000000040
:105070000000000003FFE00FE3F00F00781E00784F
:105080001E00780F00F007E3E001FF8001FF8007BA
:10509000E7E00F00F81E00781E003C1E007C1F0099
:1050A000F80FFFF003FFC000000000000000000048
:1050B00000000000000000000000000000000000F0
:1050C00000000000000000000000000000000000E0
:1050D0000000000003FF800FC7E01E00F01E0078F4
:1050E0003C00783C00783C00381E00780FEFF80751
:1050F000FFB80000780000780000F00001E0000F29
:10510000C00FFF000FF000000000000000000000D2
:10511000000000000000000000000000000000008F
:10512000000000000000000000000000000000007F
:10513000000000000000000000000000000000006F
:10514000007E00007E00007E0000180000000000CD
:105150000000000000000000000000003C00007E95
:1051600000007E00003E0000000000000000000083
:10517000000000000000000000000000000000002F
:10518000000000000000000000000000000000001F
:10519000000000000000000000000000000000000F
:1051A000007E00007E00007E00001800000000006D
:1051B0000000000000000000000000003E00007E33
:1051C00000007F00001F00001E00001E0000FC0009
:1051D00007F00004000000000000000000000000D4
:1051E00000000000000000000000000000000000BF
:1051F000000000000000000000000000400001E08E
:105200000007C0001F00007E0001F80003E0000F4F
:1052100080000F800003E00000F800003E00000F57
:10522000800003E00000E00000000000000000003B
:10523000000000000000000000000000000000006E
:10524000000000000000000000000000000000005E
:10525000000000000000000000000000000000004E
:105260000000000000000000001FFFF80000000028
:1052700000000000001FFFF81FFFF8000000000002
:10528000000000000000000000000000000000001E
:10529000000000000000000000000000000000000E
:1052A00000000000000000000000000000000000FE
:1052B0000000000000000000000000000007800067
:1052C00003E00000F800003E00000F800003E00053
:1052D00000F80001F00007C0001F00007C0001F092
:1052E0000007C000030000000000000000000000F4
:1052F00000000000000000000000000000000000AE
:10530000000000000000000000000000000001C0DC
:105310000001FE00007F800007C00001E00000F0F7
:105320000000F00001F00003E0007FC0007E0000FC
:10533000700000700000700000000000000000F825
:105340000000F80000F8000000000000000000006D
:10535000000000000000000000000000000000004D
:105360000000000000000000000000000000001F1E
:105370008000FFF003C07807801C0E000E1C000E9A
:105380003C000F383FC778FFC770E3C771C3C7F34E
:10539000C387E3C387E3878EE3878EE3CF8EE3FF84
:1053A000FC71F9F07000007000003800003C000053
:1053B0000F01C007FFC00000000000000000000057
:1053C00000000000000000000000000000000000DD
:1053D00000000000007E00007F0000FF0000E7806A
:1053E00001E78003C3C003C3C00781E00781E00F6A
:1053F00000F00F00F81FFFF81FFFFC3C003C3C00D2
:105400001E78001EF0000F000000000000000000E9
:10541000000000000000000000000000000000008C
:10542000000000000000000000000000000000007C
:10543000000000001FFFC01FFFF01E00F01E0078DC
:105440001E00781E00F01E01F01FFFC01FFFE01EAF
:1054500001F81E00781E003C1E003C1E00781E0055
:10546000F81FFFE01FFF0000000000000000000028
:10547000000000000000000000000000000000002C
:10548000000000000000000000000000000000001C
:105490000000000000FFF803FFF807C0000F000045
:1054A0001E00001E00003C00003C00003C00003CD0
:1054B00000003C00003E00001E00000F00000FC076
:1054C0000803FFF800FFF8000000000000000000E3
:1054D00000000000000000000000000000000000CC
:1054E00000000000000000000000000000000000BC
:1054F000000000003FFF003FFFE03C01F03C00786F
:105500003C003C3C003C3C003C3C001E3C001E3C43
:10551000001E3C003C3C003C3C00783C00F83C0752
:10552000E03FFFC03FFC0000000000000000000062
:10553000000000000000000000000000000000006B
:10554000000000000000000000000000000000005B
:10555000000000000FFFF00FFFF00F00000F000031
:105560000F00000F00000F00000FFFF00FFFF00F03
:1055700000000F00000F00000F00000F00000F00E0
:10558000000FFFF00FFFF00000000000000000001F
:10559000000000000000000000000000000000000B
:1055A00000000000000000000000000000000000FB
:1055B000000000000FFFF00FFFF00F00000F0000D1
:1055C0000F00000F00000F00000FFFF00FFFF00FA3
:1055D00000000F00000F00000F00000F00000F0080
:1055E000000F00000F00000000000000000000009D
:1055F00000000000000000000000000000000000AB
:10560000000000000000000000000000000000009A
:105610000000000000FFFC03FFFC0FC0041F00009F
:105620001E00003C00003C0000780FFC780FFC7866
:10563000003C3C003C3C003C3E003C1F003C0FC09A
:105640003C03FFFC00FFF800000000000000000029
:10565000000000000000000000000000000000004A
:10566000000000000000000000000000000000003A
:10567000000000003C003C3C003C3C003C3C003C4A
:105680003C003C3C003C3C003C3FFFFC3FFFFC3C02
:10569000003C3C003C3C003C3C003C3C003C3C00B2
:1056A0003C3C003C3C003C000000000000000000CE
:1056B00000000000000000000000000000000000EA
:1056C00000000000000000000000000000000000DA
:1056D000000000000FFFF80FFFF8003C00003C0046
:1056E000003C00003C00003C00003C00003C00008E
:1056F0003C00003C00003C00003C00003C00003C42
:10570000000FFFF80FFFF80000000000000000008D
:105710000000000000000000000000000000000089
:105720000000000000000000000000000000000079
:10573000000000000FFFE00FFFE00001E00001E0CB
:105740000001E00001E00001E00001E00001E000F4
:1057500001E00001E00001E00001E00003C00C07EF
:10576000C00FFF8007FE00000000000000000000E6
:105770000000000000000000000000000000000029
:105780000000000000000000000000000000000019
:10579000000000001E00781E01F01E03C01E0780DE
:1057A0001E1F001E3C001E78001EF0001FF0001E91
:1057B000F8001E3C001E1E001E0F801E07C01E01AA
:1057C000E01E00F81E007C00000000000000000049
:1057D00000000000000000000000000000000000C9
:1057E00000000000000000000000000000000000B9
:1057F000000000000780000780000780000780008D
:1058000007800007800007800007800007800007EE
:105810008000078000078000078000078000078065
:105820000007FFF807FFF80000000000000000007C
:105830000000000000000000000000000000000068
:105840000000000000000000000000000000000058
:10585000000000003E007C3F00FC3F81DC3B81DC1F
:105860003BC39C39C39C38E71C38EF1C387E1C387E
:105870007C1E383C1E78001E78001E78001E7800C2
:105880001E78001E78001E000000000000000000CE
:105890000000000000000000000000000000000008
:1058A00000000000000000000000000000000000F8
:1058B000000000001F003C1F803C1FC03C1DC03C7E
:1058C0001DE03C1CF03C1C783C1C783C1C3C3C1C07
:1058D0001E3C1C0F3C1C0F3C1C07BC1C03FC1C0189
:1058E000FC1C00FC1C00FC0000000000000000008C
:1058F00000000000000000000000000000000000A8
:105900000000000000000000000000000000000097
:105910000000000001FFC007FFF00F00F81E007C30
:105920003C003C3C001E78001E78001E78001E786B
:10593000001E78001E3C003C3C003C1E00781F000E
:10594000F007FFE001FF8000000000000000000001
:105950000000000000000000000000000000000047
:105960000000000000000000000000000000000037
:10597000000000001FFF801FFFF01E00F81E007CCB
:105980001E003C1E003C1E003C1E00781E03F01F43
:10599000FFC01FFE001E00001E00001E00001E00B3
:1059A000001E00001E0000000000000000000000BB
:1059B00000000000000000000000000000000000E7
:1059C00000000000000000000000000000000000D7
:1059D0000000000001FFC007FFF00F00F81E007C70
:1059E0003C003C3C001E78001E78001E78001E78AB
:1059F000001E78001E3C003C3C003C1E00781F80CE
:105A0000F007FFE001FF80003C00003C00001F06A3
:105A1000000FFF0001F8000000000000000000007F
:105A20000000000000000000000000000000000076
:105A3000000000000FFF800FFFE00E01F00E00F0ED
:105A40000E00F00E00F00E01F00FFFC00FFF000E71
:105A50001F000E07800E03C00E01E00E00F00E00C6
:105A6000F80E00780E003C0000000000000000006E
:105A70000000000000000000000000000000000026
:105A80000000000000000000000000000000000016
:105A90000000000003FFF00FFFF01F00001E0000D9
:105AA0001E00001F00000FC00007FC0000FF800068
:105AB0000FF00001F8000078000078000078200066
:105AC000F83FFFE03FFF8000000000000000000002
:105AD00000000000000000000000000000000000C6
